{
  "address": "0x5FbDB2315678afecb367f032d93F642f64180aa3",
  "abi": [
    {
      "inputs": [],
      "name": "noBalance",
      "type": "error"
    },
    {
      "anonymous": false,
      "inputs": [
        {
          "indexed": false,
          "internalType": "address",
          "name": "_address",
          "type": "address"
        },
        {
          "indexed": true,
          "internalType": "uint64",
          "name": "_id",
          "type": "uint64"
        },
        {
          "indexed": false,
          "internalType": "string",
          "name": "_title",
          "type": "string"
        },
        {
          "indexed": false,
          "internalType": "string",
          "name": "_description",
          "type": "string"
        }
      ],
      "name": "CampaignCreated",
      "type": "event"
    },
    {
      "stateMutability": "payable",
      "type": "fallback"
    },
    {
      "inputs": [
        {
          "internalType": "string",
          "name": "_title",
          "type": "string"
        },
        {
          "internalType": "string",
          "name": "_description",
          "type": "string"
        },
        {
          "internalType": "uint128",
          "name": "_ethAmountNeeded",
          "type": "uint128"
        }
      ],
      "name": "createCampaign",
      "outputs": [],
      "stateMutability": "nonpayable",
      "type": "function"
    },
    {
      "inputs": [
        {
          "internalType": "uint64",
          "name": "_id",
          "type": "uint64"
        }
      ],
      "name": "fundCampaign",
      "outputs": [],
      "stateMutability": "payable",
      "type": "function"
    },
    {
      "inputs": [
        {
          "internalType": "uint64",
          "name": "_id",
          "type": "uint64"
        }
      ],
      "name": "getCampaign",
      "outputs": [
        {
          "components": [
            {
              "internalType": "address",
              "name": "campaigner",
              "type": "address"
            },
            {
              "internalType": "uint64",
              "name": "id",
              "type": "uint64"
            },
            {
              "internalType": "uint256",
              "name": "amountNeeded",
              "type": "uint256"
            },
            {
              "internalType": "uint256",
              "name": "amountReceived",
              "type": "uint256"
            }
          ],
          "internalType": "struct ZkFundraiser.Campaign",
          "name": "",
          "type": "tuple"
        }
      ],
      "stateMutability": "view",
      "type": "function"
    },
    {
      "inputs": [
        {
          "internalType": "address",
          "name": "_address",
          "type": "address"
        }
      ],
      "name": "getOnesCampaigns",
      "outputs": [
        {
          "internalType": "uint64[]",
          "name": "",
          "type": "uint64[]"
        }
      ],
      "stateMutability": "view",
      "type": "function"
    },
    {
      "inputs": [],
      "name": "withdrawAll",
      "outputs": [],
      "stateMutability": "nonpayable",
      "type": "function"
    },
    {
      "stateMutability": "payable",
      "type": "receive"
    }
  ],
  "transactionHash": "0xdec0c7df851fe535922d1f8f8a0341907d5624e544f106018728bb3d21df4b9a",
  "args": [],
  "numDeployments": 1,
  "solcInputHash": "7b2c48d0310bce03f7b210a8362577d1",
  "bytecode": "0x608060405234801561001057600080fd5b50610e00806100206000396000f3fe60806040526004361061004e5760003560e01c80630e4ca0471461005757806324e198fd14610073578063853828b61461009c57806397e7ed07146100b3578063d99a6211146100f057610055565b3661005557005b005b610071600480360381019061006c91906107de565b61012d565b005b34801561007f57600080fd5b5061009a60048036038101906100959190610999565b6101c7565b005b3480156100a857600080fd5b506100b1610448565b005b3480156100bf57600080fd5b506100da60048036038101906100d591906107de565b61059a565b6040516100e79190610ae2565b60405180910390f35b3480156100fc57600080fd5b5061011760048036038101906101129190610b29565b610677565b6040516101249190610c05565b60405180910390f35b34600160008367ffffffffffffffff1667ffffffffffffffff16815260200190815260200160002060020160008282546101679190610c56565b9250508190555034600360003373ffffffffffffffffffffffffffffffffffffffff1673ffffffffffffffffffffffffffffffffffffffff16815260200190815260200160002060008282546101bd9190610c56565b9250508190555050565b600060405180608001604052803373ffffffffffffffffffffffffffffffffffffffff16815260200160008081819054906101000a900467ffffffffffffffff1661021190610c8a565b91906101000a81548167ffffffffffffffff021916908367ffffffffffffffff160217905567ffffffffffffffff168152602001670de0b6b3a7640000846102599190610cba565b6fffffffffffffffffffffffffffffffff1681526020016000815250905080600160008060009054906101000a900467ffffffffffffffff1667ffffffffffffffff1667ffffffffffffffff16815260200190815260200160002060008201518160000160006101000a81548173ffffffffffffffffffffffffffffffffffffffff021916908373ffffffffffffffffffffffffffffffffffffffff16021790555060208201518160000160146101000a81548167ffffffffffffffff021916908367ffffffffffffffff1602179055506040820151816001015560608201518160020155905050600260003373ffffffffffffffffffffffffffffffffffffffff1673ffffffffffffffffffffffffffffffffffffffff16815260200190815260200160002060008054906101000a900467ffffffffffffffff1690806001815401808255809150506001900390600052602060002090600491828204019190066008029091909190916101000a81548167ffffffffffffffff021916908367ffffffffffffffff16021790555060008054906101000a900467ffffffffffffffff1667ffffffffffffffff167f7712cd28339c73261d2a28b5c3a359818f186dba57aa9472e80991d36314121833868660405161043a93929190610d85565b60405180910390a250505050565b6000600360003373ffffffffffffffffffffffffffffffffffffffff1673ffffffffffffffffffffffffffffffffffffffff168152602001908152602001600020541115610566576000600360003373ffffffffffffffffffffffffffffffffffffffff1673ffffffffffffffffffffffffffffffffffffffff1681526020019081526020016000205490506000600360003373ffffffffffffffffffffffffffffffffffffffff1673ffffffffffffffffffffffffffffffffffffffff168152602001908152602001600020819055503373ffffffffffffffffffffffffffffffffffffffff166108fc829081150290604051600060405180830381858888f1935050505015801561055f573d6000803e3d6000fd5b5050610598565b6040517f8b29f70a00000000000000000000000000000000000000000000000000000000815260040160405180910390fd5b565b6105a2610742565b600160008367ffffffffffffffff1667ffffffffffffffff1681526020019081526020016000206040518060800160405290816000820160009054906101000a900473ffffffffffffffffffffffffffffffffffffffff1673ffffffffffffffffffffffffffffffffffffffff1673ffffffffffffffffffffffffffffffffffffffff1681526020016000820160149054906101000a900467ffffffffffffffff1667ffffffffffffffff1667ffffffffffffffff168152602001600182015481526020016002820154815250509050919050565b6060600260008373ffffffffffffffffffffffffffffffffffffffff1673ffffffffffffffffffffffffffffffffffffffff16815260200190815260200160002080548060200260200160405190810160405280929190818152602001828054801561073657602002820191906000526020600020906000905b82829054906101000a900467ffffffffffffffff1667ffffffffffffffff16815260200190600801906020826007010492830192600103820291508084116106f15790505b50505050509050919050565b6040518060800160405280600073ffffffffffffffffffffffffffffffffffffffff168152602001600067ffffffffffffffff16815260200160008152602001600081525090565b6000604051905090565b600080fd5b600080fd5b600067ffffffffffffffff82169050919050565b6107bb8161079e565b81146107c657600080fd5b50565b6000813590506107d8816107b2565b92915050565b6000602082840312156107f4576107f3610794565b5b6000610802848285016107c9565b91505092915050565b600080fd5b600080fd5b6000601f19601f8301169050919050565b7f4e487b7100000000000000000000000000000000000000000000000000000000600052604160045260246000fd5b61085e82610815565b810181811067ffffffffffffffff8211171561087d5761087c610826565b5b80604052505050565b600061089061078a565b905061089c8282610855565b919050565b600067ffffffffffffffff8211156108bc576108bb610826565b5b6108c582610815565b9050602081019050919050565b82818337600083830152505050565b60006108f46108ef846108a1565b610886565b9050828152602081018484840111156109105761090f610810565b5b61091b8482856108d2565b509392505050565b600082601f8301126109385761093761080b565b5b81356109488482602086016108e1565b91505092915050565b60006fffffffffffffffffffffffffffffffff82169050919050565b61097681610951565b811461098157600080fd5b50565b6000813590506109938161096d565b92915050565b6000806000606084860312156109b2576109b1610794565b5b600084013567ffffffffffffffff8111156109d0576109cf610799565b5b6109dc86828701610923565b935050602084013567ffffffffffffffff8111156109fd576109fc610799565b5b610a0986828701610923565b9250506040610a1a86828701610984565b9150509250925092565b600073ffffffffffffffffffffffffffffffffffffffff82169050919050565b6000610a4f82610a24565b9050919050565b610a5f81610a44565b82525050565b610a6e8161079e565b82525050565b6000819050919050565b610a8781610a74565b82525050565b608082016000820151610aa36000850182610a56565b506020820151610ab66020850182610a65565b506040820151610ac96040850182610a7e565b506060820151610adc6060850182610a7e565b50505050565b6000608082019050610af76000830184610a8d565b92915050565b610b0681610a44565b8114610b1157600080fd5b50565b600081359050610b2381610afd565b92915050565b600060208284031215610b3f57610b3e610794565b5b6000610b4d84828501610b14565b91505092915050565b600081519050919050565b600082825260208201905092915050565b6000819050602082019050919050565b6000610b8e8383610a65565b60208301905092915050565b6000602082019050919050565b6000610bb282610b56565b610bbc8185610b61565b9350610bc783610b72565b8060005b83811015610bf8578151610bdf8882610b82565b9750610bea83610b9a565b925050600181019050610bcb565b5085935050505092915050565b60006020820190508181036000830152610c1f8184610ba7565b905092915050565b7f4e487b7100000000000000000000000000000000000000000000000000000000600052601160045260246000fd5b6000610c6182610a74565b9150610c6c83610a74565b9250828201905080821115610c8457610c83610c27565b5b92915050565b6000610c958261079e565b915067ffffffffffffffff8203610caf57610cae610c27565b5b600182019050919050565b6000610cc582610951565b9150610cd083610951565b9250828202610cde81610951565b9150808214610cf057610cef610c27565b5b5092915050565b610d0081610a44565b82525050565b600081519050919050565b600082825260208201905092915050565b60005b83811015610d40578082015181840152602081019050610d25565b60008484015250505050565b6000610d5782610d06565b610d618185610d11565b9350610d71818560208601610d22565b610d7a81610815565b840191505092915050565b6000606082019050610d9a6000830186610cf7565b8181036020830152610dac8185610d4c565b90508181036040830152610dc08184610d4c565b905094935050505056fea264697066735822122015331ac2c78c3f8b56c8ba34ff75da0dd805e15ccc7db4a123c92584b3abace564736f6c63430008120033",
  "devdoc": {
    "kind": "dev",
    "methods": {},
    "version": 1
  },
  "userdoc": {
    "kind": "user",
    "methods": {},
    "version": 1
  },
  "storageLayout": {
    "storage": [
      {
        "astId": 24,
        "contract": "contracts/ZkFundraiser.sol:ZkFundraiser",
        "label": "counter",
        "offset": 0,
        "slot": "0",
        "type": "t_uint64"
      },
      {
        "astId": 29,
        "contract": "contracts/ZkFundraiser.sol:ZkFundraiser",
        "label": "campaignGetter",
        "offset": 0,
        "slot": "1",
        "type": "t_mapping(t_uint64,t_struct(Campaign)22_storage)"
      },
      {
        "astId": 34,
        "contract": "contracts/ZkFundraiser.sol:ZkFundraiser",
        "label": "onesCampaigns",
        "offset": 0,
        "slot": "2",
        "type": "t_mapping(t_address,t_array(t_uint64)dyn_storage)"
      },
      {
        "astId": 38,
        "contract": "contracts/ZkFundraiser.sol:ZkFundraiser",
        "label": "balances",
        "offset": 0,
        "slot": "3",
        "type": "t_mapping(t_address,t_uint256)"
      }
    ],
    "types": {
      "t_address": {
        "encoding": "inplace",
        "label": "address",
        "numberOfBytes": "20"
      },
      "t_array(t_uint64)dyn_storage": {
        "base": "t_uint64",
        "encoding": "dynamic_array",
        "label": "uint64[]",
        "numberOfBytes": "32"
      },
      "t_mapping(t_address,t_array(t_uint64)dyn_storage)": {
        "encoding": "mapping",
        "key": "t_address",
        "label": "mapping(address => uint64[])",
        "numberOfBytes": "32",
        "value": "t_array(t_uint64)dyn_storage"
      },
      "t_mapping(t_address,t_uint256)": {
        "encoding": "mapping",
        "key": "t_address",
        "label": "mapping(address => uint256)",
        "numberOfBytes": "32",
        "value": "t_uint256"
      },
      "t_mapping(t_uint64,t_struct(Campaign)22_storage)": {
        "encoding": "mapping",
        "key": "t_uint64",
        "label": "mapping(uint64 => struct ZkFundraiser.Campaign)",
        "numberOfBytes": "32",
        "value": "t_struct(Campaign)22_storage"
      },
      "t_struct(Campaign)22_storage": {
        "encoding": "inplace",
        "label": "struct ZkFundraiser.Campaign",
        "members": [
          {
            "astId": 15,
            "contract": "contracts/ZkFundraiser.sol:ZkFundraiser",
            "label": "campaigner",
            "offset": 0,
            "slot": "0",
            "type": "t_address"
          },
          {
            "astId": 17,
            "contract": "contracts/ZkFundraiser.sol:ZkFundraiser",
            "label": "id",
            "offset": 20,
            "slot": "0",
            "type": "t_uint64"
          },
          {
            "astId": 19,
            "contract": "contracts/ZkFundraiser.sol:ZkFundraiser",
            "label": "amountNeeded",
            "offset": 0,
            "slot": "1",
            "type": "t_uint256"
          },
          {
            "astId": 21,
            "contract": "contracts/ZkFundraiser.sol:ZkFundraiser",
            "label": "amountReceived",
            "offset": 0,
            "slot": "2",
            "type": "t_uint256"
          }
        ],
        "numberOfBytes": "96"
      },
      "t_uint256": {
        "encoding": "inplace",
        "label": "uint256",
        "numberOfBytes": "32"
      },
      "t_uint64": {
        "encoding": "inplace",
        "label": "uint64",
        "numberOfBytes": "8"
      }
    }
  }
}