{
  "address": "0x5FbDB2315678afecb367f032d93F642f64180aa3",
  "abi": [
    {
      "inputs": [],
      "name": "noBalance",
      "type": "error"
    },
    {
      "anonymous": false,
      "inputs": [
        {
          "indexed": false,
          "internalType": "address",
          "name": "_address",
          "type": "address"
        },
        {
          "indexed": true,
          "internalType": "uint64",
          "name": "_id",
          "type": "uint64"
        },
        {
          "indexed": false,
          "internalType": "string",
          "name": "_title",
          "type": "string"
        },
        {
          "indexed": false,
          "internalType": "string",
          "name": "_description",
          "type": "string"
        }
      ],
      "name": "CampaignCreated",
      "type": "event"
    },
    {
      "stateMutability": "payable",
      "type": "fallback"
    },
    {
      "inputs": [
        {
          "internalType": "address",
          "name": "",
          "type": "address"
        }
      ],
      "name": "balances",
      "outputs": [
        {
          "internalType": "uint256",
          "name": "",
          "type": "uint256"
        }
      ],
      "stateMutability": "view",
      "type": "function"
    },
    {
      "inputs": [
        {
          "internalType": "uint64",
          "name": "",
          "type": "uint64"
        }
      ],
      "name": "campaignGetter",
      "outputs": [
        {
          "internalType": "address",
          "name": "campaigner",
          "type": "address"
        },
        {
          "internalType": "string",
          "name": "title",
          "type": "string"
        },
        {
          "internalType": "string",
          "name": "description",
          "type": "string"
        },
        {
          "internalType": "uint64",
          "name": "id",
          "type": "uint64"
        },
        {
          "internalType": "uint256",
          "name": "amountNeeded",
          "type": "uint256"
        },
        {
          "internalType": "uint256",
          "name": "amountReceived",
          "type": "uint256"
        }
      ],
      "stateMutability": "view",
      "type": "function"
    },
    {
      "inputs": [],
      "name": "counter",
      "outputs": [
        {
          "internalType": "uint64",
          "name": "",
          "type": "uint64"
        }
      ],
      "stateMutability": "view",
      "type": "function"
    },
    {
      "inputs": [
        {
          "internalType": "string",
          "name": "_title",
          "type": "string"
        },
        {
          "internalType": "string",
          "name": "_description",
          "type": "string"
        },
        {
          "internalType": "uint128",
          "name": "_ethAmountNeeded",
          "type": "uint128"
        }
      ],
      "name": "createCampaign",
      "outputs": [],
      "stateMutability": "nonpayable",
      "type": "function"
    },
    {
      "inputs": [
        {
          "internalType": "uint64",
          "name": "_id",
          "type": "uint64"
        }
      ],
      "name": "fundCampaign",
      "outputs": [],
      "stateMutability": "payable",
      "type": "function"
    },
    {
      "inputs": [],
      "name": "getBalance",
      "outputs": [
        {
          "internalType": "uint256",
          "name": "",
          "type": "uint256"
        }
      ],
      "stateMutability": "view",
      "type": "function"
    },
    {
      "inputs": [
        {
          "internalType": "uint64",
          "name": "_id",
          "type": "uint64"
        }
      ],
      "name": "getCampaign",
      "outputs": [
        {
          "components": [
            {
              "internalType": "address",
              "name": "campaigner",
              "type": "address"
            },
            {
              "internalType": "string",
              "name": "title",
              "type": "string"
            },
            {
              "internalType": "string",
              "name": "description",
              "type": "string"
            },
            {
              "internalType": "uint64",
              "name": "id",
              "type": "uint64"
            },
            {
              "internalType": "uint256",
              "name": "amountNeeded",
              "type": "uint256"
            },
            {
              "internalType": "uint256",
              "name": "amountReceived",
              "type": "uint256"
            }
          ],
          "internalType": "struct ZkFundraiser.Campaign",
          "name": "",
          "type": "tuple"
        }
      ],
      "stateMutability": "view",
      "type": "function"
    },
    {
      "inputs": [],
      "name": "getCounter",
      "outputs": [
        {
          "internalType": "uint64",
          "name": "",
          "type": "uint64"
        }
      ],
      "stateMutability": "view",
      "type": "function"
    },
    {
      "inputs": [
        {
          "internalType": "address",
          "name": "_address",
          "type": "address"
        }
      ],
      "name": "getOnesCampaigns",
      "outputs": [
        {
          "internalType": "uint64[]",
          "name": "",
          "type": "uint64[]"
        }
      ],
      "stateMutability": "view",
      "type": "function"
    },
    {
      "inputs": [
        {
          "internalType": "address",
          "name": "",
          "type": "address"
        },
        {
          "internalType": "uint256",
          "name": "",
          "type": "uint256"
        }
      ],
      "name": "onesCampaigns",
      "outputs": [
        {
          "internalType": "uint64",
          "name": "",
          "type": "uint64"
        }
      ],
      "stateMutability": "view",
      "type": "function"
    },
    {
      "inputs": [],
      "name": "withdrawAll",
      "outputs": [],
      "stateMutability": "nonpayable",
      "type": "function"
    },
    {
      "stateMutability": "payable",
      "type": "receive"
    }
  ],
  "transactionHash": "0xf1631d02ebe539495ba4e4f91ad101523fb3b673cd0c66ca029491683785efa4",
  "args": [],
  "numDeployments": 1,
  "solcInputHash": "4c2e85f5762326be47da0e07ba21bb9e",
  "bytecode": "0x608060405234801561001057600080fd5b50611754806100206000396000f3fe6080604052600436106100a05760003560e01c806369572f271161006457806369572f27146101815780636c6065dd146101be578063853828b6146102005780638ada066e1461021757806397e7ed0714610242578063d99a62111461027f576100a7565b80630e4ca047146100a957806312065fe0146100c557806324e198fd146100f057806327e235e31461011957806361bc221a14610156576100a7565b366100a757005b005b6100c360048036038101906100be9190610cde565b6102bc565b005b3480156100d157600080fd5b506100da610356565b6040516100e79190610d24565b60405180910390f35b3480156100fc57600080fd5b5061011760048036038101906101129190610ecd565b61039d565b005b34801561012557600080fd5b50610140600480360381019061013b9190610fb6565b6105fc565b60405161014d9190610d24565b60405180910390f35b34801561016257600080fd5b5061016b610614565b6040516101789190610ff2565b60405180910390f35b34801561018d57600080fd5b506101a860048036038101906101a39190611039565b61062c565b6040516101b59190610ff2565b60405180910390f35b3480156101ca57600080fd5b506101e560048036038101906101e09190610cde565b610679565b6040516101f796959493929190611107565b60405180910390f35b34801561020c57600080fd5b506102156107f9565b005b34801561022357600080fd5b5061022c61094b565b6040516102399190610ff2565b60405180910390f35b34801561024e57600080fd5b5061026960048036038101906102649190610cde565b610968565b604051610276919061127d565b60405180910390f35b34801561028b57600080fd5b506102a660048036038101906102a19190610fb6565b610b69565b6040516102b3919061134e565b60405180910390f35b34600160008367ffffffffffffffff1667ffffffffffffffff16815260200190815260200160002060050160008282546102f6919061139f565b9250508190555034600360003373ffffffffffffffffffffffffffffffffffffffff1673ffffffffffffffffffffffffffffffffffffffff168152602001908152602001600020600082825461034c919061139f565b9250508190555050565b6000600360003373ffffffffffffffffffffffffffffffffffffffff1673ffffffffffffffffffffffffffffffffffffffff16815260200190815260200160002054905090565b60006040518060c001604052803373ffffffffffffffffffffffffffffffffffffffff16815260200185815260200184815260200160008081819054906101000a900467ffffffffffffffff166103f3906113d3565b91906101000a81548167ffffffffffffffff021916908367ffffffffffffffff160217905567ffffffffffffffff168152602001670de0b6b3a76400008461043b9190611403565b6fffffffffffffffffffffffffffffffff1681526020016000815250905080600160008060009054906101000a900467ffffffffffffffff1667ffffffffffffffff1667ffffffffffffffff16815260200190815260200160002060008201518160000160006101000a81548173ffffffffffffffffffffffffffffffffffffffff021916908373ffffffffffffffffffffffffffffffffffffffff16021790555060208201518160010190816104f2919061164c565b506040820151816002019081610508919061164c565b5060608201518160030160006101000a81548167ffffffffffffffff021916908367ffffffffffffffff1602179055506080820151816004015560a08201518160050155905050600260003373ffffffffffffffffffffffffffffffffffffffff1673ffffffffffffffffffffffffffffffffffffffff16815260200190815260200160002060008054906101000a900467ffffffffffffffff1690806001815401808255809150506001900390600052602060002090600491828204019190066008029091909190916101000a81548167ffffffffffffffff021916908367ffffffffffffffff16021790555050505050565b60036020528060005260406000206000915090505481565b60008054906101000a900467ffffffffffffffff1681565b6002602052816000526040600020818154811061064857600080fd5b9060005260206000209060049182820401919006600802915091509054906101000a900467ffffffffffffffff1681565b60016020528060005260406000206000915090508060000160009054906101000a900473ffffffffffffffffffffffffffffffffffffffff16908060010180546106c29061146f565b80601f01602080910402602001604051908101604052809291908181526020018280546106ee9061146f565b801561073b5780601f106107105761010080835404028352916020019161073b565b820191906000526020600020905b81548152906001019060200180831161071e57829003601f168201915b5050505050908060020180546107509061146f565b80601f016020809104026020016040519081016040528092919081815260200182805461077c9061146f565b80156107c95780601f1061079e576101008083540402835291602001916107c9565b820191906000526020600020905b8154815290600101906020018083116107ac57829003601f168201915b5050505050908060030160009054906101000a900467ffffffffffffffff16908060040154908060050154905086565b6000600360003373ffffffffffffffffffffffffffffffffffffffff1673ffffffffffffffffffffffffffffffffffffffff168152602001908152602001600020541115610917576000600360003373ffffffffffffffffffffffffffffffffffffffff1673ffffffffffffffffffffffffffffffffffffffff1681526020019081526020016000205490506000600360003373ffffffffffffffffffffffffffffffffffffffff1673ffffffffffffffffffffffffffffffffffffffff168152602001908152602001600020819055503373ffffffffffffffffffffffffffffffffffffffff166108fc829081150290604051600060405180830381858888f19350505050158015610910573d6000803e3d6000fd5b5050610949565b6040517f8b29f70a00000000000000000000000000000000000000000000000000000000815260040160405180910390fd5b565b60008060009054906101000a900467ffffffffffffffff16905090565b610970610c34565b600160008367ffffffffffffffff1667ffffffffffffffff1681526020019081526020016000206040518060c00160405290816000820160009054906101000a900473ffffffffffffffffffffffffffffffffffffffff1673ffffffffffffffffffffffffffffffffffffffff1673ffffffffffffffffffffffffffffffffffffffff168152602001600182018054610a089061146f565b80601f0160208091040260200160405190810160405280929190818152602001828054610a349061146f565b8015610a815780601f10610a5657610100808354040283529160200191610a81565b820191906000526020600020905b815481529060010190602001808311610a6457829003601f168201915b50505050508152602001600282018054610a9a9061146f565b80601f0160208091040260200160405190810160405280929190818152602001828054610ac69061146f565b8015610b135780601f10610ae857610100808354040283529160200191610b13565b820191906000526020600020905b815481529060010190602001808311610af657829003601f168201915b505050505081526020016003820160009054906101000a900467ffffffffffffffff1667ffffffffffffffff1667ffffffffffffffff168152602001600482015481526020016005820154815250509050919050565b6060600260008373ffffffffffffffffffffffffffffffffffffffff1673ffffffffffffffffffffffffffffffffffffffff168152602001908152602001600020805480602002602001604051908101604052809291908181526020018280548015610c2857602002820191906000526020600020906000905b82829054906101000a900467ffffffffffffffff1667ffffffffffffffff1681526020019060080190602082600701049283019260010382029150808411610be35790505b50505050509050919050565b6040518060c00160405280600073ffffffffffffffffffffffffffffffffffffffff1681526020016060815260200160608152602001600067ffffffffffffffff16815260200160008152602001600081525090565b6000604051905090565b600080fd5b600080fd5b600067ffffffffffffffff82169050919050565b610cbb81610c9e565b8114610cc657600080fd5b50565b600081359050610cd881610cb2565b92915050565b600060208284031215610cf457610cf3610c94565b5b6000610d0284828501610cc9565b91505092915050565b6000819050919050565b610d1e81610d0b565b82525050565b6000602082019050610d396000830184610d15565b92915050565b600080fd5b600080fd5b6000601f19601f8301169050919050565b7f4e487b7100000000000000000000000000000000000000000000000000000000600052604160045260246000fd5b610d9282610d49565b810181811067ffffffffffffffff82111715610db157610db0610d5a565b5b80604052505050565b6000610dc4610c8a565b9050610dd08282610d89565b919050565b600067ffffffffffffffff821115610df057610def610d5a565b5b610df982610d49565b9050602081019050919050565b82818337600083830152505050565b6000610e28610e2384610dd5565b610dba565b905082815260208101848484011115610e4457610e43610d44565b5b610e4f848285610e06565b509392505050565b600082601f830112610e6c57610e6b610d3f565b5b8135610e7c848260208601610e15565b91505092915050565b60006fffffffffffffffffffffffffffffffff82169050919050565b610eaa81610e85565b8114610eb557600080fd5b50565b600081359050610ec781610ea1565b92915050565b600080600060608486031215610ee657610ee5610c94565b5b600084013567ffffffffffffffff811115610f0457610f03610c99565b5b610f1086828701610e57565b935050602084013567ffffffffffffffff811115610f3157610f30610c99565b5b610f3d86828701610e57565b9250506040610f4e86828701610eb8565b9150509250925092565b600073ffffffffffffffffffffffffffffffffffffffff82169050919050565b6000610f8382610f58565b9050919050565b610f9381610f78565b8114610f9e57600080fd5b50565b600081359050610fb081610f8a565b92915050565b600060208284031215610fcc57610fcb610c94565b5b6000610fda84828501610fa1565b91505092915050565b610fec81610c9e565b82525050565b60006020820190506110076000830184610fe3565b92915050565b61101681610d0b565b811461102157600080fd5b50565b6000813590506110338161100d565b92915050565b600080604083850312156110505761104f610c94565b5b600061105e85828601610fa1565b925050602061106f85828601611024565b9150509250929050565b61108281610f78565b82525050565b600081519050919050565b600082825260208201905092915050565b60005b838110156110c25780820151818401526020810190506110a7565b60008484015250505050565b60006110d982611088565b6110e38185611093565b93506110f38185602086016110a4565b6110fc81610d49565b840191505092915050565b600060c08201905061111c6000830189611079565b818103602083015261112e81886110ce565b9050818103604083015261114281876110ce565b90506111516060830186610fe3565b61115e6080830185610d15565b61116b60a0830184610d15565b979650505050505050565b61117f81610f78565b82525050565b600082825260208201905092915050565b60006111a182611088565b6111ab8185611185565b93506111bb8185602086016110a4565b6111c481610d49565b840191505092915050565b6111d881610c9e565b82525050565b6111e781610d0b565b82525050565b600060c0830160008301516112056000860182611176565b506020830151848203602086015261121d8282611196565b915050604083015184820360408601526112378282611196565b915050606083015161124c60608601826111cf565b50608083015161125f60808601826111de565b5060a083015161127260a08601826111de565b508091505092915050565b6000602082019050818103600083015261129781846111ed565b905092915050565b600081519050919050565b600082825260208201905092915050565b6000819050602082019050919050565b60006112d783836111cf565b60208301905092915050565b6000602082019050919050565b60006112fb8261129f565b61130581856112aa565b9350611310836112bb565b8060005b8381101561134157815161132888826112cb565b9750611333836112e3565b925050600181019050611314565b5085935050505092915050565b6000602082019050818103600083015261136881846112f0565b905092915050565b7f4e487b7100000000000000000000000000000000000000000000000000000000600052601160045260246000fd5b60006113aa82610d0b565b91506113b583610d0b565b92508282019050808211156113cd576113cc611370565b5b92915050565b60006113de82610c9e565b915067ffffffffffffffff82036113f8576113f7611370565b5b600182019050919050565b600061140e82610e85565b915061141983610e85565b925082820261142781610e85565b915080821461143957611438611370565b5b5092915050565b7f4e487b7100000000000000000000000000000000000000000000000000000000600052602260045260246000fd5b6000600282049050600182168061148757607f821691505b60208210810361149a57611499611440565b5b50919050565b60008190508160005260206000209050919050565b60006020601f8301049050919050565b600082821b905092915050565b6000600883026115027fffffffffffffffffffffffffffffffffffffffffffffffffffffffffffffffff826114c5565b61150c86836114c5565b95508019841693508086168417925050509392505050565b6000819050919050565b600061154961154461153f84610d0b565b611524565b610d0b565b9050919050565b6000819050919050565b6115638361152e565b61157761156f82611550565b8484546114d2565b825550505050565b600090565b61158c61157f565b61159781848461155a565b505050565b5b818110156115bb576115b0600082611584565b60018101905061159d565b5050565b601f821115611600576115d1816114a0565b6115da846114b5565b810160208510156115e9578190505b6115fd6115f5856114b5565b83018261159c565b50505b505050565b600082821c905092915050565b600061162360001984600802611605565b1980831691505092915050565b600061163c8383611612565b9150826002028217905092915050565b61165582611088565b67ffffffffffffffff81111561166e5761166d610d5a565b5b611678825461146f565b6116838282856115bf565b600060209050601f8311600181146116b657600084156116a4578287015190505b6116ae8582611630565b865550611716565b601f1984166116c4866114a0565b60005b828110156116ec578489015182556001820191506020850194506020810190506116c7565b868310156117095784890151611705601f891682611612565b8355505b6001600288020188555050505b50505050505056fea2646970667358221220da72c49a975702a0a7e6944f4d541adf73733476964a1044929584f8e966160664736f6c63430008120033",
  "devdoc": {
    "kind": "dev",
    "methods": {},
    "version": 1
  },
  "userdoc": {
    "kind": "user",
    "methods": {},
    "version": 1
  },
  "storageLayout": {
    "storage": [
      {
        "astId": 28,
        "contract": "contracts/ZkFundraiser.sol:ZkFundraiser",
        "label": "counter",
        "offset": 0,
        "slot": "0",
        "type": "t_uint64"
      },
      {
        "astId": 33,
        "contract": "contracts/ZkFundraiser.sol:ZkFundraiser",
        "label": "campaignGetter",
        "offset": 0,
        "slot": "1",
        "type": "t_mapping(t_uint64,t_struct(Campaign)26_storage)"
      },
      {
        "astId": 38,
        "contract": "contracts/ZkFundraiser.sol:ZkFundraiser",
        "label": "onesCampaigns",
        "offset": 0,
        "slot": "2",
        "type": "t_mapping(t_address,t_array(t_uint64)dyn_storage)"
      },
      {
        "astId": 42,
        "contract": "contracts/ZkFundraiser.sol:ZkFundraiser",
        "label": "balances",
        "offset": 0,
        "slot": "3",
        "type": "t_mapping(t_address,t_uint256)"
      }
    ],
    "types": {
      "t_address": {
        "encoding": "inplace",
        "label": "address",
        "numberOfBytes": "20"
      },
      "t_array(t_uint64)dyn_storage": {
        "base": "t_uint64",
        "encoding": "dynamic_array",
        "label": "uint64[]",
        "numberOfBytes": "32"
      },
      "t_mapping(t_address,t_array(t_uint64)dyn_storage)": {
        "encoding": "mapping",
        "key": "t_address",
        "label": "mapping(address => uint64[])",
        "numberOfBytes": "32",
        "value": "t_array(t_uint64)dyn_storage"
      },
      "t_mapping(t_address,t_uint256)": {
        "encoding": "mapping",
        "key": "t_address",
        "label": "mapping(address => uint256)",
        "numberOfBytes": "32",
        "value": "t_uint256"
      },
      "t_mapping(t_uint64,t_struct(Campaign)26_storage)": {
        "encoding": "mapping",
        "key": "t_uint64",
        "label": "mapping(uint64 => struct ZkFundraiser.Campaign)",
        "numberOfBytes": "32",
        "value": "t_struct(Campaign)26_storage"
      },
      "t_string_storage": {
        "encoding": "bytes",
        "label": "string",
        "numberOfBytes": "32"
      },
      "t_struct(Campaign)26_storage": {
        "encoding": "inplace",
        "label": "struct ZkFundraiser.Campaign",
        "members": [
          {
            "astId": 15,
            "contract": "contracts/ZkFundraiser.sol:ZkFundraiser",
            "label": "campaigner",
            "offset": 0,
            "slot": "0",
            "type": "t_address"
          },
          {
            "astId": 17,
            "contract": "contracts/ZkFundraiser.sol:ZkFundraiser",
            "label": "title",
            "offset": 0,
            "slot": "1",
            "type": "t_string_storage"
          },
          {
            "astId": 19,
            "contract": "contracts/ZkFundraiser.sol:ZkFundraiser",
            "label": "description",
            "offset": 0,
            "slot": "2",
            "type": "t_string_storage"
          },
          {
            "astId": 21,
            "contract": "contracts/ZkFundraiser.sol:ZkFundraiser",
            "label": "id",
            "offset": 0,
            "slot": "3",
            "type": "t_uint64"
          },
          {
            "astId": 23,
            "contract": "contracts/ZkFundraiser.sol:ZkFundraiser",
            "label": "amountNeeded",
            "offset": 0,
            "slot": "4",
            "type": "t_uint256"
          },
          {
            "astId": 25,
            "contract": "contracts/ZkFundraiser.sol:ZkFundraiser",
            "label": "amountReceived",
            "offset": 0,
            "slot": "5",
            "type": "t_uint256"
          }
        ],
        "numberOfBytes": "192"
      },
      "t_uint256": {
        "encoding": "inplace",
        "label": "uint256",
        "numberOfBytes": "32"
      },
      "t_uint64": {
        "encoding": "inplace",
        "label": "uint64",
        "numberOfBytes": "8"
      }
    }
  }
}