{
  "address": "0xDc64a140Aa3E981100a9becA4E685f962f0cF6C9",
  "abi": [
    {
      "inputs": [],
      "name": "noBalance",
      "type": "error"
    },
    {
      "anonymous": false,
      "inputs": [
        {
          "indexed": false,
          "internalType": "address",
          "name": "_address",
          "type": "address"
        },
        {
          "indexed": true,
          "internalType": "uint64",
          "name": "_id",
          "type": "uint64"
        },
        {
          "indexed": false,
          "internalType": "string",
          "name": "_title",
          "type": "string"
        },
        {
          "indexed": false,
          "internalType": "string",
          "name": "_description",
          "type": "string"
        }
      ],
      "name": "CampaignCreated",
      "type": "event"
    },
    {
      "stateMutability": "payable",
      "type": "fallback"
    },
    {
      "inputs": [
        {
          "internalType": "string",
          "name": "_title",
          "type": "string"
        },
        {
          "internalType": "string",
          "name": "_description",
          "type": "string"
        },
        {
          "internalType": "uint128",
          "name": "_ethAmountNeeded",
          "type": "uint128"
        }
      ],
      "name": "createCampaign",
      "outputs": [],
      "stateMutability": "nonpayable",
      "type": "function"
    },
    {
      "inputs": [
        {
          "internalType": "uint64",
          "name": "_id",
          "type": "uint64"
        }
      ],
      "name": "fundCampaign",
      "outputs": [],
      "stateMutability": "payable",
      "type": "function"
    },
    {
      "inputs": [],
      "name": "getBalance",
      "outputs": [
        {
          "internalType": "uint256",
          "name": "",
          "type": "uint256"
        }
      ],
      "stateMutability": "view",
      "type": "function"
    },
    {
      "inputs": [
        {
          "internalType": "uint64",
          "name": "_id",
          "type": "uint64"
        }
      ],
      "name": "getCampaign",
      "outputs": [
        {
          "components": [
            {
              "internalType": "address",
              "name": "campaigner",
              "type": "address"
            },
            {
              "internalType": "string",
              "name": "title",
              "type": "string"
            },
            {
              "internalType": "string",
              "name": "description",
              "type": "string"
            },
            {
              "internalType": "uint64",
              "name": "id",
              "type": "uint64"
            },
            {
              "internalType": "uint256",
              "name": "amountNeeded",
              "type": "uint256"
            },
            {
              "internalType": "uint256",
              "name": "amountReceived",
              "type": "uint256"
            }
          ],
          "internalType": "struct ZkFundraiser.Campaign",
          "name": "",
          "type": "tuple"
        }
      ],
      "stateMutability": "view",
      "type": "function"
    },
    {
      "inputs": [],
      "name": "getCounter",
      "outputs": [
        {
          "internalType": "uint64",
          "name": "",
          "type": "uint64"
        }
      ],
      "stateMutability": "view",
      "type": "function"
    },
    {
      "inputs": [
        {
          "internalType": "address",
          "name": "_address",
          "type": "address"
        }
      ],
      "name": "getOnesCampaigns",
      "outputs": [
        {
          "internalType": "uint64[]",
          "name": "",
          "type": "uint64[]"
        }
      ],
      "stateMutability": "view",
      "type": "function"
    },
    {
      "inputs": [],
      "name": "withdrawAll",
      "outputs": [],
      "stateMutability": "nonpayable",
      "type": "function"
    },
    {
      "stateMutability": "payable",
      "type": "receive"
    }
  ],
  "transactionHash": "0x3fa917dd680f79f7cf27def8956fb7c8fd6e21897ae6e4bf552d6ad75b9e0e53",
  "args": [],
  "numDeployments": 5,
  "solcInputHash": "1f240bfb458432d4b3e3d082db4e33cd",
  "bytecode": "0x608060405234801561001057600080fd5b50611310806100206000396000f3fe6080604052600436106100745760003560e01c8063853828b61161004e578063853828b6146100ed5780638ada066e1461010457806397e7ed071461012f578063d99a62111461016c5761007b565b80630e4ca0471461007d57806312065fe01461009957806324e198fd146100c45761007b565b3661007b57005b005b610097600480360381019061009291906109ce565b6101a9565b005b3480156100a557600080fd5b506100ae610243565b6040516100bb9190610a14565b60405180910390f35b3480156100d057600080fd5b506100eb60048036038101906100e69190610bbd565b61028a565b005b3480156100f957600080fd5b506101026104e9565b005b34801561011057600080fd5b5061011961063b565b6040516101269190610c57565b60405180910390f35b34801561013b57600080fd5b50610156600480360381019061015191906109ce565b610658565b6040516101639190610de0565b60405180910390f35b34801561017857600080fd5b50610193600480360381019061018e9190610e2e565b610859565b6040516101a09190610f0a565b60405180910390f35b34600160008367ffffffffffffffff1667ffffffffffffffff16815260200190815260200160002060050160008282546101e39190610f5b565b9250508190555034600360003373ffffffffffffffffffffffffffffffffffffffff1673ffffffffffffffffffffffffffffffffffffffff16815260200190815260200160002060008282546102399190610f5b565b9250508190555050565b6000600360003373ffffffffffffffffffffffffffffffffffffffff1673ffffffffffffffffffffffffffffffffffffffff16815260200190815260200160002054905090565b60006040518060c001604052803373ffffffffffffffffffffffffffffffffffffffff16815260200185815260200184815260200160008081819054906101000a900467ffffffffffffffff166102e090610f8f565b91906101000a81548167ffffffffffffffff021916908367ffffffffffffffff160217905567ffffffffffffffff168152602001670de0b6b3a7640000846103289190610fbf565b6fffffffffffffffffffffffffffffffff1681526020016000815250905080600160008060009054906101000a900467ffffffffffffffff1667ffffffffffffffff1667ffffffffffffffff16815260200190815260200160002060008201518160000160006101000a81548173ffffffffffffffffffffffffffffffffffffffff021916908373ffffffffffffffffffffffffffffffffffffffff16021790555060208201518160010190816103df9190611208565b5060408201518160020190816103f59190611208565b5060608201518160030160006101000a81548167ffffffffffffffff021916908367ffffffffffffffff1602179055506080820151816004015560a08201518160050155905050600260003373ffffffffffffffffffffffffffffffffffffffff1673ffffffffffffffffffffffffffffffffffffffff16815260200190815260200160002060008054906101000a900467ffffffffffffffff1690806001815401808255809150506001900390600052602060002090600491828204019190066008029091909190916101000a81548167ffffffffffffffff021916908367ffffffffffffffff16021790555050505050565b6000600360003373ffffffffffffffffffffffffffffffffffffffff1673ffffffffffffffffffffffffffffffffffffffff168152602001908152602001600020541115610607576000600360003373ffffffffffffffffffffffffffffffffffffffff1673ffffffffffffffffffffffffffffffffffffffff1681526020019081526020016000205490506000600360003373ffffffffffffffffffffffffffffffffffffffff1673ffffffffffffffffffffffffffffffffffffffff168152602001908152602001600020819055503373ffffffffffffffffffffffffffffffffffffffff166108fc829081150290604051600060405180830381858888f19350505050158015610600573d6000803e3d6000fd5b5050610639565b6040517f8b29f70a00000000000000000000000000000000000000000000000000000000815260040160405180910390fd5b565b60008060009054906101000a900467ffffffffffffffff16905090565b610660610924565b600160008367ffffffffffffffff1667ffffffffffffffff1681526020019081526020016000206040518060c00160405290816000820160009054906101000a900473ffffffffffffffffffffffffffffffffffffffff1673ffffffffffffffffffffffffffffffffffffffff1673ffffffffffffffffffffffffffffffffffffffff1681526020016001820180546106f89061102b565b80601f01602080910402602001604051908101604052809291908181526020018280546107249061102b565b80156107715780601f1061074657610100808354040283529160200191610771565b820191906000526020600020905b81548152906001019060200180831161075457829003601f168201915b5050505050815260200160028201805461078a9061102b565b80601f01602080910402602001604051908101604052809291908181526020018280546107b69061102b565b80156108035780601f106107d857610100808354040283529160200191610803565b820191906000526020600020905b8154815290600101906020018083116107e657829003601f168201915b505050505081526020016003820160009054906101000a900467ffffffffffffffff1667ffffffffffffffff1667ffffffffffffffff168152602001600482015481526020016005820154815250509050919050565b6060600260008373ffffffffffffffffffffffffffffffffffffffff1673ffffffffffffffffffffffffffffffffffffffff16815260200190815260200160002080548060200260200160405190810160405280929190818152602001828054801561091857602002820191906000526020600020906000905b82829054906101000a900467ffffffffffffffff1667ffffffffffffffff16815260200190600801906020826007010492830192600103820291508084116108d35790505b50505050509050919050565b6040518060c00160405280600073ffffffffffffffffffffffffffffffffffffffff1681526020016060815260200160608152602001600067ffffffffffffffff16815260200160008152602001600081525090565b6000604051905090565b600080fd5b600080fd5b600067ffffffffffffffff82169050919050565b6109ab8161098e565b81146109b657600080fd5b50565b6000813590506109c8816109a2565b92915050565b6000602082840312156109e4576109e3610984565b5b60006109f2848285016109b9565b91505092915050565b6000819050919050565b610a0e816109fb565b82525050565b6000602082019050610a296000830184610a05565b92915050565b600080fd5b600080fd5b6000601f19601f8301169050919050565b7f4e487b7100000000000000000000000000000000000000000000000000000000600052604160045260246000fd5b610a8282610a39565b810181811067ffffffffffffffff82111715610aa157610aa0610a4a565b5b80604052505050565b6000610ab461097a565b9050610ac08282610a79565b919050565b600067ffffffffffffffff821115610ae057610adf610a4a565b5b610ae982610a39565b9050602081019050919050565b82818337600083830152505050565b6000610b18610b1384610ac5565b610aaa565b905082815260208101848484011115610b3457610b33610a34565b5b610b3f848285610af6565b509392505050565b600082601f830112610b5c57610b5b610a2f565b5b8135610b6c848260208601610b05565b91505092915050565b60006fffffffffffffffffffffffffffffffff82169050919050565b610b9a81610b75565b8114610ba557600080fd5b50565b600081359050610bb781610b91565b92915050565b600080600060608486031215610bd657610bd5610984565b5b600084013567ffffffffffffffff811115610bf457610bf3610989565b5b610c0086828701610b47565b935050602084013567ffffffffffffffff811115610c2157610c20610989565b5b610c2d86828701610b47565b9250506040610c3e86828701610ba8565b9150509250925092565b610c518161098e565b82525050565b6000602082019050610c6c6000830184610c48565b92915050565b600073ffffffffffffffffffffffffffffffffffffffff82169050919050565b6000610c9d82610c72565b9050919050565b610cad81610c92565b82525050565b600081519050919050565b600082825260208201905092915050565b60005b83811015610ced578082015181840152602081019050610cd2565b60008484015250505050565b6000610d0482610cb3565b610d0e8185610cbe565b9350610d1e818560208601610ccf565b610d2781610a39565b840191505092915050565b610d3b8161098e565b82525050565b610d4a816109fb565b82525050565b600060c083016000830151610d686000860182610ca4565b5060208301518482036020860152610d808282610cf9565b91505060408301518482036040860152610d9a8282610cf9565b9150506060830151610daf6060860182610d32565b506080830151610dc26080860182610d41565b5060a0830151610dd560a0860182610d41565b508091505092915050565b60006020820190508181036000830152610dfa8184610d50565b905092915050565b610e0b81610c92565b8114610e1657600080fd5b50565b600081359050610e2881610e02565b92915050565b600060208284031215610e4457610e43610984565b5b6000610e5284828501610e19565b91505092915050565b600081519050919050565b600082825260208201905092915050565b6000819050602082019050919050565b6000610e938383610d32565b60208301905092915050565b6000602082019050919050565b6000610eb782610e5b565b610ec18185610e66565b9350610ecc83610e77565b8060005b83811015610efd578151610ee48882610e87565b9750610eef83610e9f565b925050600181019050610ed0565b5085935050505092915050565b60006020820190508181036000830152610f248184610eac565b905092915050565b7f4e487b7100000000000000000000000000000000000000000000000000000000600052601160045260246000fd5b6000610f66826109fb565b9150610f71836109fb565b9250828201905080821115610f8957610f88610f2c565b5b92915050565b6000610f9a8261098e565b915067ffffffffffffffff8203610fb457610fb3610f2c565b5b600182019050919050565b6000610fca82610b75565b9150610fd583610b75565b9250828202610fe381610b75565b9150808214610ff557610ff4610f2c565b5b5092915050565b7f4e487b7100000000000000000000000000000000000000000000000000000000600052602260045260246000fd5b6000600282049050600182168061104357607f821691505b60208210810361105657611055610ffc565b5b50919050565b60008190508160005260206000209050919050565b60006020601f8301049050919050565b600082821b905092915050565b6000600883026110be7fffffffffffffffffffffffffffffffffffffffffffffffffffffffffffffffff82611081565b6110c88683611081565b95508019841693508086168417925050509392505050565b6000819050919050565b60006111056111006110fb846109fb565b6110e0565b6109fb565b9050919050565b6000819050919050565b61111f836110ea565b61113361112b8261110c565b84845461108e565b825550505050565b600090565b61114861113b565b611153818484611116565b505050565b5b818110156111775761116c600082611140565b600181019050611159565b5050565b601f8211156111bc5761118d8161105c565b61119684611071565b810160208510156111a5578190505b6111b96111b185611071565b830182611158565b50505b505050565b600082821c905092915050565b60006111df600019846008026111c1565b1980831691505092915050565b60006111f883836111ce565b9150826002028217905092915050565b61121182610cb3565b67ffffffffffffffff81111561122a57611229610a4a565b5b611234825461102b565b61123f82828561117b565b600060209050601f8311600181146112725760008415611260578287015190505b61126a85826111ec565b8655506112d2565b601f1984166112808661105c565b60005b828110156112a857848901518255600182019150602085019450602081019050611283565b868310156112c557848901516112c1601f8916826111ce565b8355505b6001600288020188555050505b50505050505056fea26469706673582212208b07d6bb10a007b3750acb57c7d59934b45a2efcb5f6b1499bfae16867bc056e64736f6c63430008120033",
  "devdoc": {
    "kind": "dev",
    "methods": {},
    "version": 1
  },
  "userdoc": {
    "kind": "user",
    "methods": {},
    "version": 1
  },
  "storageLayout": {
    "storage": [
      {
        "astId": 28,
        "contract": "contracts/ZkFundraiser.sol:ZkFundraiser",
        "label": "counter",
        "offset": 0,
        "slot": "0",
        "type": "t_uint64"
      },
      {
        "astId": 33,
        "contract": "contracts/ZkFundraiser.sol:ZkFundraiser",
        "label": "campaignGetter",
        "offset": 0,
        "slot": "1",
        "type": "t_mapping(t_uint64,t_struct(Campaign)26_storage)"
      },
      {
        "astId": 38,
        "contract": "contracts/ZkFundraiser.sol:ZkFundraiser",
        "label": "onesCampaigns",
        "offset": 0,
        "slot": "2",
        "type": "t_mapping(t_address,t_array(t_uint64)dyn_storage)"
      },
      {
        "astId": 42,
        "contract": "contracts/ZkFundraiser.sol:ZkFundraiser",
        "label": "balances",
        "offset": 0,
        "slot": "3",
        "type": "t_mapping(t_address,t_uint256)"
      }
    ],
    "types": {
      "t_address": {
        "encoding": "inplace",
        "label": "address",
        "numberOfBytes": "20"
      },
      "t_array(t_uint64)dyn_storage": {
        "base": "t_uint64",
        "encoding": "dynamic_array",
        "label": "uint64[]",
        "numberOfBytes": "32"
      },
      "t_mapping(t_address,t_array(t_uint64)dyn_storage)": {
        "encoding": "mapping",
        "key": "t_address",
        "label": "mapping(address => uint64[])",
        "numberOfBytes": "32",
        "value": "t_array(t_uint64)dyn_storage"
      },
      "t_mapping(t_address,t_uint256)": {
        "encoding": "mapping",
        "key": "t_address",
        "label": "mapping(address => uint256)",
        "numberOfBytes": "32",
        "value": "t_uint256"
      },
      "t_mapping(t_uint64,t_struct(Campaign)26_storage)": {
        "encoding": "mapping",
        "key": "t_uint64",
        "label": "mapping(uint64 => struct ZkFundraiser.Campaign)",
        "numberOfBytes": "32",
        "value": "t_struct(Campaign)26_storage"
      },
      "t_string_storage": {
        "encoding": "bytes",
        "label": "string",
        "numberOfBytes": "32"
      },
      "t_struct(Campaign)26_storage": {
        "encoding": "inplace",
        "label": "struct ZkFundraiser.Campaign",
        "members": [
          {
            "astId": 15,
            "contract": "contracts/ZkFundraiser.sol:ZkFundraiser",
            "label": "campaigner",
            "offset": 0,
            "slot": "0",
            "type": "t_address"
          },
          {
            "astId": 17,
            "contract": "contracts/ZkFundraiser.sol:ZkFundraiser",
            "label": "title",
            "offset": 0,
            "slot": "1",
            "type": "t_string_storage"
          },
          {
            "astId": 19,
            "contract": "contracts/ZkFundraiser.sol:ZkFundraiser",
            "label": "description",
            "offset": 0,
            "slot": "2",
            "type": "t_string_storage"
          },
          {
            "astId": 21,
            "contract": "contracts/ZkFundraiser.sol:ZkFundraiser",
            "label": "id",
            "offset": 0,
            "slot": "3",
            "type": "t_uint64"
          },
          {
            "astId": 23,
            "contract": "contracts/ZkFundraiser.sol:ZkFundraiser",
            "label": "amountNeeded",
            "offset": 0,
            "slot": "4",
            "type": "t_uint256"
          },
          {
            "astId": 25,
            "contract": "contracts/ZkFundraiser.sol:ZkFundraiser",
            "label": "amountReceived",
            "offset": 0,
            "slot": "5",
            "type": "t_uint256"
          }
        ],
        "numberOfBytes": "192"
      },
      "t_uint256": {
        "encoding": "inplace",
        "label": "uint256",
        "numberOfBytes": "32"
      },
      "t_uint64": {
        "encoding": "inplace",
        "label": "uint64",
        "numberOfBytes": "8"
      }
    }
  }
}